:020000040800F2
:1000000000000120E1FA0008CDF90008D9F9000844
:10001000DFF90008E5F90008EBF90008000000002E
:10002000000000000000000000000000F1F90008DE
:10003000FDF900080000000009FA000815FA0008A0
:1000400031FB000831FB000831FB000831FB0008E0
:1000500031FB000831FB000831FB000831FB0008D0
:1000600031FB000831FB000831FB000831FB0008C0
:1000700031FB000831FB000831FB000831FB0008B0
:1000800031FB000831FB000831FB000800000000D4
:1000900000000000000000000000000031FB00082C
:1000A00031FB000825FA000831FB000831FB00088D
:1000B00031FB000831FB000831FB000831FB000870
:1000C00031FB000831FB000831FB000831FB000860
:1000D00031FB000831FB000831FB00080000000084
:1000E00031FB000831FB000831FB00080000000074
:1000F00000000000000000000000000031FB0008CC
:100100000000000031FB000831FB000831FB000853
:1001100000000000000000000000000000000000DF
:1001200031FB000831FB000831FB000831FB0008FF
:1001300031FB00080000000000000000000000008B
:1001400000000000000000000000000045FA000868
:1001500031FB000831FB000831FB000859FA0008A8
:1001600031FB000831FB0008000000000000000027
:10017000000000000000000000000000000000007F
:100180000000000031FB000800000000000000003B
:0401900031FB000837
:1001A00010B5054C237833B9044B13B10448AFF3B1
:1001B00000800123237010BD080200200000000011
:1001C0008C37010808B5034B1BB103490348AFF353
:1001D000008008BD000000000C0200208C370108E0
:1001E00081F0004102E000BF83F0004330B54FEAE8
:1001F00041044FEA430594EA050F08BF90EA020F55
:100200001FBF54EA000C55EA020C7FEA645C7FEAE7
:10021000655C00F0E2804FEA5454D4EB5555B8BF0A
:100220006D420CDD2C4480EA020281EA030382EA7B
:10023000000083EA010180EA020281EA0303362D0D
:1002400088BF30BD11F0004F4FEA01314FF4801CE0
:100250004CEA113102D0404261EB410113F0004FF2
:100260004FEA03334CEA133302D0524263EB4303A9
:1002700094EA050F00F0A780A4F10104D5F1200E47
:100280000DDB02FA0EFC22FA05F2801841F10001A2
:1002900003FA0EF2801843FA05F359410EE0A5F176
:1002A00020050EF1200E012A03FA0EFC28BF4CF0A7
:1002B000020C43FA05F3C01851EBE37101F000455D
:1002C00007D54FF0000EDCF1000C7EEB00006EEB6A
:1002D0000101B1F5801F1BD3B1F5001F0CD34908F4
:1002E0005FEA30004FEA3C0C04F101044FEA44524B
:1002F00012F5800F80F09A80BCF1004F08BF5FEAD2
:10030000500C50F1000041EB045141EA050130BDB1
:100310005FEA4C0C404141EB010111F4801FA4F154
:100320000104E9D191F0000F04BF01460020B1FAA9
:1003300081F308BF2033A3F10B03B3F120020CDAE1
:100340000C3208DD02F1140CC2F10C0201FA0CF0BF
:1003500021FA02F10CE002F11402D8BFC2F1200C24
:1003600001FA02F120FA0CFCDCBF41EA0C019040DA
:10037000E41AA2BF01EB0451294330BD6FEA040423
:100380001F3C1CDA0C340EDC04F11404C4F120020E
:1003900020FA04F001FA02F340EA030021FA04F320
:1003A00045EA030130BDC4F10C04C4F1200220FA77
:1003B00002F001FA04F340EA0300294630BD21FAB5
:1003C00004F0294630BD94F0000F83F4801306BF7B
:1003D00081F480110134013D4EE77FEA645C18BF6F
:1003E0007FEA655C29D094EA050F08BF90EA020F06
:1003F00005D054EA000C04BF1946104630BD91EAFE
:10040000030F1EBF0021002030BD5FEA545C05D100
:100410004000494128BF41F0004130BD14F580043F
:100420003CBF01F5801130BD01F0004545F0FE41B3
:1004300041F470014FF0000030BD7FEA645C1ABFE8
:10044000194610467FEA655C1CBF0B46024650EA1F
:10045000013406BF52EA033591EA030F41F400214B
:1004600030BD00BF90F0000F04BF0021704730B5D1
:100470004FF4806404F132044FF000054FF00001A6
:1004800050E700BF90F0000F04BF0021704730B567
:100490004FF4806404F1320410F0004548BF40423C
:1004A0004FF000013EE700BF42004FEAE2014FEA91
:1004B00031014FEA02701FBF12F07F4393F07F4F6C
:1004C00081F06051704732F07F4208BF704793F06F
:1004D0007F4F04BF41F40021704730B54FF4607482
:1004E00001F0004521F000411CE700BF50EA010285
:1004F00008BF704730B54FF000050AE050EA01022E
:1005000008BF704730B511F0004502D5404261EB9D
:1005100041014FF4806404F132045FEA915C3FF4DE
:10052000D8AE4FF003025FEADC0C18BF03325FEA7B
:10053000DC0C18BF033202EBDC02C2F1200300FA2C
:1005400003FC20FA02F001FA03FE40EA0E0021FA51
:1005500002F11444BDE600BF70B54FF0FF0C4CF43F
:10056000E06C1CEA11541DBF1CEA135594EA0C0FF1
:1005700095EA0C0F00F0DEF82C4481EA030621EA2C
:100580004C5123EA4C5350EA013518BF52EA033567
:1005900041F4801143F4801338D0A0FB02CE4FF019
:1005A0000005E1FB02E506F00042E0FB03E54FF049
:1005B0000006E1FB03569CF0000F18BF4EF0010E41
:1005C000A4F1FF04B6F5007F64F5407404D25FEA3D
:1005D0004E0E6D4146EB060642EAC62141EA5551F0
:1005E0004FEAC52040EA5E504FEACE2EB4F1FD0C32
:1005F00088BFBCF5E06F1ED8BEF1004F08BF5FEAB0
:10060000500E50F1000041EB045170BD06F0004661
:1006100046EA010140EA020081EA0301B4EB5C040E
:10062000C2BFD4EB0C0541EA045170BD41F4801106
:100630004FF0000E013C00F3AB8014F1360FDEBF2B
:10064000002001F0004170BDC4F10004203C35DA07
:100650000C341BDC04F11404C4F1200500FA05F38A
:1006600020FA04F001FA05F240EA020001F000422B
:1006700021F0004110EBD37021FA04F642EB0601A1
:100680005EEA430E08BF20EAD37070BDC4F10C04CB
:10069000C4F1200500FA04F320FA05F001FA04F28F
:1006A00040EA020001F0004110EBD37041F100017B
:1006B0005EEA430E08BF20EAD37070BDC4F1200586
:1006C00000FA05F24EEA020E20FA04F301FA05F2EE
:1006D00043EA020321FA04F001F0004121FA04F296
:1006E00020EA020000EBD3705EEA430E08BF20EA66
:1006F000D37070BD94F0000F0FD101F000464000A0
:1007000041EB010111F4801F08BF013CF7D041EA21
:10071000060195F0000F18BF704703F00046520025
:1007200043EB030313F4801F08BF013DF7D043EAF6
:100730000603704794EA0C0F0CEA135518BF95EAAC
:100740000C0F0CD050EA410618BF52EA4306D1D133
:1007500081EA030101F000414FF0000070BD50EA52
:10076000410606BF1046194652EA430619D094EADC
:100770000C0F02D150EA013613D195EA0C0F05D1C6
:1007800052EA03361CBF104619460AD181EA03011A
:1007900001F0004141F0FE4141F470014FF00000D2
:1007A00070BD41F0FE4141F4780170BD70B54FF06D
:1007B000FF0C4CF4E06C1CEA11541DBF1CEA1355ED
:1007C00094EA0C0F95EA0C0F00F0A7F8A4EB0504CF
:1007D00081EA030E52EA03354FEA013100F08880C6
:1007E0004FEA03334FF0805545EA131343EA12638F
:1007F0004FEA022245EA111545EA10654FEA002644
:100800000EF000419D4208BF964244F1FD0404F5FC
:10081000407402D25B084FEA3202B61A65EB030558
:100820005B084FEA32024FF480104FF4002CB6EB15
:10083000020E75EB030E22BFB61A754640EA0C0095
:100840005B084FEA3202B6EB020E75EB030E22BFD5
:10085000B61A754640EA5C005B084FEA3202B6EB16
:10086000020E75EB030E22BFB61A754640EA9C00D5
:100870005B084FEA3202B6EB020E75EB030E22BFA5
:10088000B61A754640EADC0055EA060E18D04FEA63
:10089000051545EA16754FEA06164FEAC30343EA03
:1008A00052734FEAC2025FEA1C1CC0D111F4801FD0
:1008B0000BD141EA00014FF000004FF0004CB6E7C9
:1008C00011F4801F04BF01430020B4F1FD0C88BF68
:1008D000BCF5E06F3FF6AFAEB5EB030C04BFB6EB73
:1008E000020C5FEA500C50F1000041EB045170BD66
:1008F0000EF0004E4EEA113114EB5C04C2BFD4EB93
:100900000C0541EA045170BD41F480114FF0000E16
:10091000013C90E645EA060E8DE60CEA135594EA92
:100920000C0F08BF95EA0C0F3FF43BAF94EA0C0F95
:100930000AD150EA01347FF434AF95EA0C0F7FF40A
:1009400025AF104619462CE795EA0C0F06D152EA5E
:1009500003353FF4FDAE1046194622E750EA410642
:1009600018BF52EA43067FF4C5AE50EA41047FF453
:100970000DAF52EA43057FF4EBAE12E74FEA4102B6
:10098000B2F1E04324BFB3F5001CDCF1FE5C0DD9ED
:1009900001F0004C4FEAC0024CEA5070B2F1004F37
:1009A00040EB830008BF20F00100704711F0804F3A
:1009B00021D113F13872BCBF01F00040704741F4FF
:1009C00080114FEA5252C2F11802C2F1200C10FA03
:1009D0000CF320FA02F018BF40F001004FEAC123E7
:1009E0004FEAD32303FA0CFC40EA0C0023FA02F38B
:1009F0004FEA4303CCE77FEA625307D150EA013361
:100A00001EBF4FF0FE4040F44000704701F0004030
:100A100040F0FE4040F40000704700BF80F000400E
:100A200002E000BF81F0004142001FBF5FEA4103C6
:100A300092EA030F7FEA226C7FEA236C6AD04FEAC6
:100A40001262D2EB1363C1BFD2184140484041400B
:100A5000B8BF5B42192B88BF704710F0004F40F4BD
:100A6000000020F07F4018BF404211F0004F41F4D9
:100A7000000121F07F4118BF494292EA030F3FD0A5
:100A8000A2F1010241FA03FC10EB0C00C3F12003B8
:100A900001FA03F100F0004302D5494260EB400047
:100AA000B0F5000F13D3B0F1807F06D340084FEAB2
:100AB000310102F10102FE2A51D2B1F1004F40EBA7
:100AC000C25008BF20F0010040EA0300704749000F
:100AD00040EB000010F4000FA2F10102EDD1B0FADA
:100AE00080FCACF1080CB2EB0C0200FA0CF0AABFCF
:100AF00000EBC25052421843BCBFD040184370476D
:100B000092F0000F81F4000106BF80F40000013272
:100B1000013BB5E74FEA41037FEA226C18BF7FEA49
:100B2000236C21D092EA030F04D092F0000F08BF8B
:100B30000846704790EA010F1CBF0020704712F072
:100B40007F4F04D1400028BF40F00040704712F1B1
:100B500000723CBF00F50000704700F0004343F016
:100B6000FE4040F4000070477FEA226216BF08464C
:100B70007FEA23630146420206BF5FEA412390EA0F
:100B8000010F40F4800070474FF0000304E000BF05
:100B900010F0004348BF40425FEA000C08BF7047B6
:100BA00043F0964301464FF000001CE050EA01027A
:100BB00008BF70474FF000030AE000BF50EA01028F
:100BC00008BF704711F0004302D5404261EB41017C
:100BD0005FEA010C02BF84460146002043F0B643A1
:100BE00008BFA3F18053A3F50003BCFA8CF2083AC6
:100BF000A3EBC25310DB01FA02FC634400FA02FCCF
:100C0000C2F12002BCF1004F20FA02F243EB0200D5
:100C100008BF20F00100704702F1200201FA02FC37
:100C2000C2F1200250EA4C0021FA02F243EB02002A
:100C300008BF20EADC7070474FF0FF0C1CEAD0526E
:100C40001EBF1CEAD15392EA0C0F93EA0C0F6FD02F
:100C50001A4480EA010C400218BF5FEA41211ED00D
:100C60004FF0006343EA501043EA5111A0FB0131F9
:100C70000CF00040B1F5000F3EBF490041EAD371CE
:100C80005B0040EA010062F17F02FD2A1DD8B3F14A
:100C9000004F40EBC25008BF20F00100704790F0B9
:100CA000000F0CF0004C08BF49024CEA502040EA0B
:100CB00051207F3AC2BFD2F1FF0340EAC2507047D1
:100CC00040F400004FF00003013A5DDC12F1190F0F
:100CD000DCBF00F000407047C2F10002410021FA81
:100CE00002F1C2F1200200FA02FC5FEA310040F199
:100CF000000053EA4C0308BF20EADC70704792F012
:100D0000000F00F0004C02BF400010F4000F013A49
:100D1000F9D040EA0C0093F0000F01F0004C02BF44
:100D2000490011F4000F013BF9D041EA0C018FE7B3
:100D30000CEAD15392EA0C0F18BF93EA0C0F0AD0B9
:100D400030F0004C18BF31F0004CD8D180EA0100DF
:100D500000F00040704790F0000F17BF90F0004F78
:100D6000084691F0000F91F0004F14D092EA0C0F5A
:100D700001D142020FD193EA0C0F03D14B0218BFED
:100D8000084608D180EA010000F0004040F0FE4033
:100D900040F40000704740F0FE4040F440007047CF
:100DA0004FF0FF0C1CEAD0521EBF1CEAD15392EA4E
:100DB0000C0F93EA0C0F69D0A2EB030280EA010C3E
:100DC00049024FEA402037D04FF0805343EA1111D7
:100DD00043EA10130CF000408B4238BF5B0042F135
:100DE0007D024FF4000C8B4224BF5B1A40EA0C00DA
:100DF000B3EB510F24BFA3EB510340EA5C00B3EB0C
:100E0000910F24BFA3EB910340EA9C00B3EBD10FF9
:100E100024BFA3EBD10340EADC001B0118BF5FEA4B
:100E20001C1CE0D1FD2A3FF650AF8B4240EBC25074
:100E300008BF20F0010070470CF0004C4CEA502035
:100E40007F32C2BFD2F1FF0340EAC250704740F484
:100E500000004FF00003013A37E792F0000F00F076
:100E6000004C02BF400010F4000F013AF9D040EAF4
:100E70000C0093F0000F01F0004C02BF490011F488
:100E8000000F013BF9D041EA0C0195E70CEAD15380
:100E900092EA0C0F08D142027FF47DAF93EA0C0F67
:100EA0007FF470AF084676E793EA0C0F04D14B024B
:100EB0003FF44CAF08466EE730F0004C18BF31F0FD
:100EC000004CCAD130F000427FF45CAF31F00043F7
:100ED0007FF43CAF5FE700BF4FEA4002B2F1FE4F44
:100EE0000FD34FF09E03B3EB12620DD94FEA0023EC
:100EF00043F0004310F0004F23FA02F018BF4042C5
:100F000070474FF00000704712F1610F01D14202AB
:100F100005D110F0004008BF6FF0004070474FF05F
:100F20000000704742000ED2B2F1FE4F0BD34FF0DB
:100F30009E03B3EB126209D44FEA002343F000434F
:100F400023FA02F070474FF00000704712F1610F72
:100F500001D1420202D14FF0FF3070474FF0000044
:100F6000704700BF53B94AB9002908BF00281CBF09
:100F70004FF0FF314FF0FF3001F0F8B8ADF1080C41
:100F80006DE904CE00F006F8DDF804E0DDE90223A7
:100F900004B070472DE9F047089E04468846002BB0
:100FA0004BD18A42154667D9B2FA82F24AB1C2F1F0
:100FB000200701FA02F320FA07F7954047EA0308F1
:100FC00094404FEA154E230CB8FBFEF71FFA85FC40
:100FD0000EFB178843EA084307FB0CF1994209D935
:100FE000EB1807F1FF3080F01B81994240F2188125
:100FF000023F2B445B1AA4B2B3FBFEF00EFB10338E
:1010000044EA034400FB0CFCA44509D92C1900F167
:10101000FF3380F00781A44540F2048102382C445C
:1010200040EA0740A4EB0C0400271EB1D440002383
:10103000C6E900433946BDE8F0878B4209D9002E46
:1010400000F0EB800027C6E9000138463946BDE8CC
:10105000F087B3FA83F7002F47D18B4202D3824245
:1010600000F2FA80841A61EB030301209846002EF7
:10107000E0D0C6E90048DDE702B9FFDEB2FA82F24D
:10108000002A40F08F80491B4FEA154E1FFA85F861
:101090000127B1FBFEFC230C0EFB1C1143EA0143AC
:1010A00008FB0CF1994207D9EB180CF1FF3002D282
:1010B000994200F2CD808446591AA3B2B1FBFEF0EA
:1010C0000EFB101443EA044408FB00F8A04507D9BE
:1010D0002C1900F1FF3302D2A04500F2B680184669
:1010E000A4EB080440EA0C409FE7C7F1200CBB408A
:1010F00022FA0CFE4EEA030E01FA07F420FA0CF570
:1011000021FA0CF34FEA1E482543B3FBF8F92C0CE7
:1011100008FB19331FFA8EFA44EA034309FB0AF469
:101120009C4202FA07F200FA07F10BD91EEB030307
:1011300009F1FF3080F087809C4240F28480A9F161
:10114000020973441B1BADB2B3FBF8F008FB10336C
:1011500045EA034400FB0AFAA24508D91EEB040441
:1011600000F1FF336BD2A24569D90238744440EADA
:101170000940A0FB0289A4EB0A044C45C2464B4639
:1011800054D351D0002E69D0B1EB0A0564EB0304AF
:1011900004FA0CFCFD40FC404CEA0505C6E900548D
:1011A000002747E7C2F1200320FA03F7954001FA30
:1011B00002F021FA03F34FEA154E3843010CB3FB5A
:1011C000FEF71FFA85F80EFB173341EA034107FBD0
:1011D00008F38B4204FA02F407D9691807F1FF3CBF
:1011E0002FD28B422DD9023F2944CB1A81B2B3FBB7
:1011F000FEF00EFB103341EA034100FB08F38B4283
:1012000007D9691800F1FF3C17D28B4215D9023873
:101210002944C91A40EA07473BE73746304609E701
:101220000746E7E61846FBE64145ABD2B8EB020AB3
:1012300069EB0E0201381346A4E76046E9E7184659
:1012400095E76746D1E781467CE702382C4447E7BB
:10125000ACF1020C2B442FE7384608E73746E9E6A5
:1012600003685A004CBF43F0004323F00043184486
:10127000704700BF61B32DE9F84F01F1FF3A904686
:101280000646D146002707EB090404EBD47464102A
:10129000E50071190846FFF7E3FFA245834605F113
:1012A0000800304409D0FFF7DBFFC34500F1FF30F1
:1012B00005D8404509D2671CE5E7C34505D9A742D3
:1012C00002D004F1FF39DEE700210846BDE8F88FBF
:1012D00008467047012807D0022807D0044B002891
:1012E0000CBF1846002070470248704702487047FC
:1012F000C1190008C5190008C919000830B5254BE7
:1013000083B004468D1E4BB301A92846AFF300807D
:10131000F0B101992A46FFF7ADFF0146C0B1FFF7D2
:101320009FFF4B68A064012B2ED0002B01F104001D
:1013300026DBFFF795FF0023C4E913030368002BA6
:1013400012DBFFF78DFF00232061184603B030BD8C
:10135000002323610923184603B030BD0E490F480E
:10136000091AC9100191D5E7C3F30360FFF7B2FF73
:10137000002814BF002309232061184603B030BDA4
:101380000123C4E91303D9E7002323610523184689
:1013900003B030BD0000000094530108544B010815
:1013A0000368DA0710B5044606D49B0700F148002D
:1013B00009D500F05FFC2368590709D51A070ED537
:1013C000DB0613D510BD00F04DFC23685907F5D49A
:1013D00004F1D00000F056FC23681A07F0D404F59D
:1013E000A87000F057FC2368DB06EBD404F5E87026
:1013F000BDE8104000F092BC036803B103441846F6
:10140000704700BF09207047704700BF70B50446A1
:101410000D4608E02B6C63612A46236921460120B2
:101420009847082808D1296C2046FFF767FF064631
:101430000028EFD00FF064FE0728FBD13046296C5E
:10144000FFF7E2FF281D00F001FC00BF2DE9F04787
:101450000C1D054617460FCCADF5727D03AE0FC6C9
:101460000FCC0FC60FCC0FC694E80F0002ACD5F816
:101470000C80D5F8189086E80F000023236021E047
:10148000236C6B614FF4F07221467AA80FF097FE3F
:101490002B697AAA294630469847889BCDE90049AE
:1014A0008246636431462B462A460120C0470746E0
:1014B000F8B94FF4F0727AA920460FF080FEBAF125
:1014C000080F1CD1216C2846FFF718FF002F08BF1A
:1014D0000926074618BF0A260028D1D0A36B46F07C
:1014E0001001CDE900492A46636401202B46C0471C
:1014F00000B1092738460DF5727DBDE8F087BAF1D5
:10150000070FF6D13846216CFFF77EFF03A800F0E5
:101510009DFB00BF406C7047F0B5CB6B0B640D1D9D
:101520000F4606460FCDF9B001AC0FC40FCD0FC466
:101530000FCD0FC495E80F004FF0FF3584E80F0082
:10154000009506E033696A46314698470828044604
:1015500008D110993046FFF7D1FE0028F2D00920BB
:1015600079B0F0BD6846FFF71BFF062CF7D139466E
:101570003046FFF74BFF00BF30B4DD6BC1608261C6
:1015800019461D64002230BC60E700BF70B5C66814
:1015900043690B64BEB903690A4604460D46014619
:1015A00002209847072807D0082803D1294620465B
:1015B000FFF72CFF0FF0A4FD3046296CFFF724FF46
:1015C000281D00F043FB0122FFF740FF0FF098FDBC
:1015D000C2681AB1CA6B0A64002237E79CE700BFF1
:1015E000704700BF836813B1014601201847704758
:1015F000042907D8DFE801F00308060808000BB942
:101600000F2A03D9022070470120704700EB8202A5
:1016100018465368009A1360704700BF10B584B035
:10162000002303AC0A4600941946FFF7E1FF039834
:1016300004B010BD042907D8DFE801F0030806084C
:1016400008000BB90F2A03D9022070470120704708
:1016500000EB8200009A126842601846704700BF93
:1016600010B584B004AC002344F8042D0A4600945D
:101670001946FFF7DFFF04B010BD00BFF0B5D36B14
:101680001364151D07460E460FCDADF50F7D17AC43
:101690000FC40FCD0FC40FCD0FC495E80F004FF04E
:1016A000FF3584E80F00169510E016A8FFF7D8FF65
:1016B000314616A8B84716AA694678B9049B08208F
:1016C0009847052804460AD0092807D02699684675
:1016D000FFF714FE6A460C210028E6D0092416A85C
:1016E000FFF75EFE20460DF50F7DF0BD2DE9F04FB2
:1016F0000D46C96C89B00C1D164600F0030B0A6834
:1017000006941F46002B68D0130CD9B212048DF832
:101710001D30022304EB810405928DF81C302B6DE3
:10172000BBF1020F08BFAC6B13F0010346D101936C
:1017300000F008030093D4F80090B9F1000F00F016
:10174000F380022F45D0B4F80090B4F8028004343E
:10175000AB6C28F0010A0F2130469A44FFF75EFF78
:10176000824534D829F001035344834294BF0020BA
:1017700001204FEA480808F0020809F0010948EA88
:101780000908B8F1010F3AD031D3B8F1020F1AD1DC
:10179000236823F0004ABBF1000F66D130B1009AF4
:1017A000002A6CD0BAF1000F00F09080002B00DA14
:1017B00004340AF1010304EB8304BCE7304605A9B5
:1017C00000F046FB78B1092009B0BDE8F08F002099
:1017D000CFE7D4F804800834BAE712020323059255
:1017E000ADF81C309BE7082009B0BDE8F08FBBF1D5
:1017F000000F02D0002840F0B48004349BE7BBF116
:10180000000F18D1A8B1D4E90023991C4FEAD27275
:10181000D9D005F158010133049100F0B580201DA5
:10182000FFF7EAFD04AB014628460EF021FA002836
:1018300067D108347FE70D213046D5F82080FFF7C7
:10184000EDFE8045F5D1AB6A9C42F2D12046FFF710
:1018500007FD0F2102463046FFF702FF30462A46B9
:101860000021FFF7FDFE0720AEE70D213046D5F839
:101870002080FFF7D3FE804532D0236896E7BAF187
:10188000000F23D005F1580304F10408CDF808B087
:10189000DDF800900397A3461C4602E05745B94681
:1018A00040D040460494FFF7A7FD04AB0146002258
:1018B00028460EF0DDF909F1010708F104080028B7
:1018C000ECD0D1455C46DDE902B7D6D130460D21DA
:1018D000FFF7A4FE049B2862C5E90934062073E7DC
:1018E000AB6A9C42C9D104224FF00008A318C5E995
:1018F0000AA8C5E90C23236843454DDB0123019366
:1019000057E780460D213046FFF788FEB8F1020FF9
:1019100028623ED12B46049A43F82C2F6B62AC62AE
:10192000062051E75C46D1E705A9304600F090FA61
:1019300000287FF448AF019B002B3FF454AF0F21E8
:101940003046FFF76BFE0E2102463046FFF788FE59
:1019500030461A4A0F21FFF783FE072009B0BDE881
:10196000F08F2046FFF77CFC04340746AC63284622
:101970000EF0DCF900283FF426AF30463A460F213E
:10198000FFF76EFE07201FE730460D21FFF746FEEA
:101990002862049B6B62C2E70AF1010004EB80003D
:1019A000FFF75EFC0F2102463046FFF759FE304636
:1019B0002A464146FFF754FE072005E7C9100108F3
:1019C000002393E6012391E602238FE62DE9F041FF
:1019D0000546C4B0042906D8DFE801F04D2B050305
:1019E0000900032B5FD0022044B0BDE8F081002B3A
:1019F000F9D1102AF7D82B68DC0600F1F48022AC6C
:101A00002046019200F094F9A86B019A0023012668
:101A100006FA03F1114203D0016844F823100430A0
:101A20000133042BF4D1A863204600F077F900209D
:101A3000DAE7012B4FEA124697B252D0052BD2D1EA
:101A400006EB0708B8F1200FCDD80F2E40F2998091
:101A5000B846002F40F0DB80AA6BAA630F2E40F23D
:101A6000BE80B8F1000F02D002A800F00BF90020F0
:101A700044B0BDE8F081002BB5D1AC6B97B2281D06
:101A8000012606FA03F1394203F1010302D021686D
:101A900001600434102B00F10400F2D112F4005064
:101AA000E5D1AC63A0E7160C97B2F319102B9AD8C6
:101AB0002B681A075DD422AC204600F00DF904EB28
:101AC000C601AB6B3FB103EBC702186841F8040BCA
:101AD00004339342F9D12046AB6300F0DBF80020D9
:101AE00082E7F219102A3FF67EAF0F2E3FF67BAF4A
:101AF0002A68D10708D5284622F0030240F8482B6F
:101B0000019300F0B3F8019B019322AC204600F052
:101B1000ADF8A96B019B002F00F095807F0004EBCE
:101B2000C6044FF00008043C01EB870251F8040B97
:101B300044F8040F9142F9D1B8F1000F0FD002AC74
:101B4000102E314638BF102104EBC101843902EB5D
:101B5000C80452F8040B41F8040F9442F9D1012B48
:101B60007FF47BAF22AC0432AA63204600F07AF8FF
:101B70007DE723F008032B6005F5A87000F0ACF8B2
:101B800099E7B8F1100F2A6843D9D007A8F11008D7
:101B90000BD5284622F0010242F0020240F8482B01
:101BA000019300F06BF82A68019B510725D40F2E92
:101BB00004D822A8019300F061F8019B019302ACC4
:101BC000204600F063F8C6F110010029AA6B019BC2
:101BD000B6DD22AC4F0004EBC6041146A3E722A8F1
:101BE00000F048F83DE723F010032B6005F5E8709E
:101BF000019200F09DF8019A01E7284622F00402C4
:101C000040F8D02B019300F041F8019BCFE72A6800
:101C1000CBE7D0070AD5284622F0010242F00202A3
:101C200040F8482B019300F029F8019B019322AC66
:101C3000204600F023F8B846A96B019B002F7FF4E3
:101C40006DAF0A4609E70A468DE700BF00F134018F
:101C500091E838009C46A6464CF8045D90E8FF0FDA
:101C6000E54600BD90EC210B704700BF80EC210BD6
:101C7000704700BF90EC200B704700BF80EC200B3A
:101C8000704700BFD0EC200B704700BFC0EC200BAA
:101C9000704700BFF0EC0201F0EC0211F0EC022101
:101CA000F0EC0231F0EC0241F0EC0251F0EC026198
:101CB000F0EC0271F0EC0281F0EC0291F0EC02A188
:101CC000F0EC02B1F0EC02C1F0EC02D1F0EC02E178
:101CD000F0EC02F1704700BFE0EC0201E0EC021111
:101CE000E0EC0221E0EC0231E0EC0241E0EC0251D8
:101CF000E0EC0261E0EC0271E0EC0281E0EC0291C8
:101D0000E0EC02A1E0EC02B1E0EC02C1E0EC02D1B7
:101D1000E0EC02E1E0EC02F1704700BFB0FC0181B1
:101D2000B0FC0191B0FC01A1B0FC01B1704700BF53
:101D3000A0FC0181A0FC0191A0FC01A1A0FC01B1CB
:101D4000704700BFEC4600B52DE900502DE9FF1F9C
:101D50004FF000032DE90C0001A9FFF7DDFBDDF8D2
:101D600040E012B0704700BFEC4600B52DE90050CE
:101D70002DE9FF1F4FF000032DE90C0001A9FFF72B
:101D800005FCDDF840E012B0704700BFEC4600B53E
:101D90002DE900502DE9FF1F4FF000032DE90C0045
:101DA00001A9FFF715FCDDF840E012B0704700BF55
:101DB000EC4600B52DE900502DE9FF1F4FF0000360
:101DC0002DE90C0001ABFFF7D7FBDDF840E012B0C6
:101DD000704700BFEC4600B52DE900502DE9FF1F0C
:101DE0004FF000032DE90C0001AAFFF747FCDDF8D6
:101DF00040E012B0704700BF027A7AB9437AA3B1CB
:101E00004268013B10B4437213680321141D017230
:101E10001A024460026010BC180E70470368013A51
:101E200002721A020260180E7047B020704700BF9D
:101E300000B585B003AA0023009219460C22FFF7D3
:101E4000D7FB039805B05DF804FB00BFF0E700BFC7
:101E50002DE9F043054685B00E464FF000083046A8
:101E6000FFF7CAFFB028044600F0B180070620D56E
:101E700000F0F003802B65D0902B36D0A02B78D0CB
:101E8000B02B47D0C02B00F08A8000F0F803D02B95
:101E90000BD100F00702013242F400220523012198
:101EA0002846FFF793FD0028D9D0092005B0BDE8EA
:101EB000F0830DF10C09002319468700CDF800903E
:101EC0000D222846FFF794FBFFB2039BCDF800904C
:101ED000043760064CBFDF1BFF18002319460D2294
:101EE00028460397FFF7A6FBB9E700F00D030D2B7B
:101EF000DBD003AF002300F00F02194600972846FD
:101F0000FFF776FB0023009719460D222846FFF7BE
:101F100091FBA4E7B1285FD0B22800F0CC80B328B1
:101F20007ED000F0FC03B42BBFD000F007020132DA
:101F3000012342F4002219462846FFF747FD0028F6
:101F40008DD0B2E73046FFF757FF24020443B4F5C3
:101F5000004FAAD024010023A2B219462846FFF759
:101F600035FD0028A1D114F4004F18BF4FF001082F
:101F700075E7C24302F007034FF47F621A4101077D
:101F800002F47F624FF0000348BF42F480421946DA
:101F90002846FFF71BFD00283FF461AF85E7C62800
:101FA00051D0C7285AD000F0F803C02B69D0C828F8
:101FB00075D0C9287FF479AF3046FFF71DFF0203C3
:101FC00000F00F0002F470220130024366E7B8F11E
:101FD000000F14D0002069E73046FFF70DFF0028FE
:101FE0003FF463AF10F0F0037FF45FAF0246194691
:101FF0002846FFF7EBFC00283FF431AF55E703AC70
:1020000043460E22414600942846FFF7F1FA009419
:10201000284643460F224146FFF70CFB404645E762
:102020003046FFF7E9FE010300F00F0001F47021D4
:10203000421C01230A4328461946FFF7C7FC002823
:102040003FF40DAF31E73046FFF7D6FE010300F055
:102050000F0001F47021421C0323EBE73046FFF729
:10206000CBFE024600283FF420AF10F0F0037FF4CF
:102070001CAF04212846FFF7A9FC00283FF4EFAE6F
:1020800013E700F00F020132032342F42022194625
:102090002846FFF79BFC00283FF4E1AE05E73046F9
:1020A000FFF7AAFE00F0F00200F00F031032013338
:1020B00043EA0232F2E600230DF10C090D22194623
:1020C000CDF800902846FFF793FA3046FFF794FECC
:1020D00002064FF002070CD5039B00F07F00B840CA
:1020E000034430460393FFF787FE030607F1070713
:1020F000F2D4039BCDF8009000F07F0403F5017249
:10210000BC400023144419460D2228460394FFF7CF
:1021100091FAA4E610B5C36C84B05A6803208DF818
:102120000C00DC798DF80D4012020833084601A935
:1021300001920293FFF78CFE04B010BD08B5FFF7C3
:1021400085FE806C08BD00BF08B5FFF77FFEC06C40
:10215000C37900EB8300083008BD00BF08B50EF05E
:10216000CFFF00BF08B5FFF7F9FF00BF704700BF02
:1021700001F0FF01102A2BDB10F0070F08D010F838
:10218000013B013A8B422DD010F0070F42B3F6D13C
:10219000F0B441EA012141EA014122F007047FF055
:1021A00000070023F0E80256083C85EA010586EAAC
:1021B000010685FA47F5A3FA87F586FA47F6A5FAE8
:1021C00087F68EB9EED1F0BC01F0FF0102F00702F4
:1021D00032B110F8013B013A83EA010313B1F8D19F
:1021E0000020704701387047002D06BF3546033880
:1021F000073815F0010F07D1013015F4807F02BFB9
:10220000013015F4C03F0130F0BC0138704700BF09
:1022100010F8012B11F8013B012A28BF9A42F7D090
:10222000D01A7047034613F8012B002AFBD1181A65
:10223000013870474FF0FF3C06E000BF4FF0010C43
:1022400002E000BF4FF0010C4DF804CD4FEA410C05
:102250007FEA6C5C4FEA430C18BF7FEA6C5C1BD0D2
:1022600001B050EA410C0CBF52EA430C91EA030F53
:1022700002BF90EA020F0020704710F1000F91EAB0
:10228000030F58BF994208BF90422CBFD8176FEA7E
:10229000E37040F0010070474FEA410C7FEA6C5C4C
:1022A00002D150EA013C07D14FEA430C7FEA6C5C53
:1022B000D6D152EA033CD3D05DF8040B704700BF7F
:1022C0008446104662468C461946634600E000BFCD
:1022D00001B5FFF7B7FF002848BF10F1000F01BD9F
:1022E0004DF808EDFFF7F4FF0CBF012000205DF86A
:1022F00008FB00BF4DF808EDFFF7EAFF34BF0120EF
:1023000000205DF808FB00BF4DF808EDFFF7E0FF87
:1023100094BF012000205DF808FB00BF4DF808EDD8
:10232000FFF7CEFF94BF012000205DF808FB00BF3F
:102330004DF808EDFFF7C4FF34BF012000205DF821
:1023400008FB00BF4FEA410C7FEA6C5C02D150EA07
:10235000013C0AD14FEA430C7FEA6C5C02D152EA9D
:10236000033C02D14FF0000070474FF0010070476E
:102370004FEA410212F5001215D211D56FF47873AD
:10238000B3EB625212D94FEAC12343F0004343EA50
:10239000505311F0004F23FA02F018BF404270472B
:1023A0004FF00000704750EA013005D111F00040B5
:1023B00008BF6FF0004070474FF00000704700BF4B
:1023C0004A0011D212F5001211D20DD56FF47873B4
:1023D000B3EB62520ED44FEAC12343F0004343EA09
:1023E000505323FA02F070474FF00000704750EA54
:1023F000013002D14FF0FF3070474FF000007047BE
:102400004FF0FF3C06E000BF4FF0010C02E000BFC0
:102410004FF0010C4DF804CD4FEA40024FEA410362
:102420007FEA226C18BF7FEA236C11D001B052EA18
:10243000530C18BF90EA010F58BFB2EB030088BFDE
:10244000C81738BF6FEAE17018BF40F0010070474D
:102450007FEA226C02D15FEA402C05D17FEA236C2F
:10246000E4D15FEA412CE1D05DF8040B704700BF76
:10247000844608466146FFE70FB5FFF7C9FF00280D
:1024800048BF10F1000F0FBD4DF808EDFFF7F4FF46
:102490000CBF012000205DF808FB00BF4DF808EDDF
:1024A000FFF7EAFF34BF012000205DF808FB00BF02
:1024B0004DF808EDFFF7E0FF94BF012000205DF824
:1024C00008FB00BF4DF808EDFFF7D2FF94BF0120D5
:1024D00000205DF808FB00BF4DF808EDFFF7C8FFCE
:1024E00034BF012000205DF808FB00BF4FEA400226
:1024F0004FEA41037FEA226C02D15FEA402C08D107
:102500007FEA236C02D15FEA412C02D14FF0000038
:1025100070474FF00100704780B500AF0E4B1B684D
:102520000D4A43F4007313600B4B1B680A4A43F4D3
:1025300080631360084B1B68074A43F48073136081
:10254000032000F0A1FB002000F008F80DF096F841
:102550000023184680BD00BF003C024080B582B019
:1025600000AF7860124B1A68124B1B7819464FF473
:102570007A73B3FBF1F3B2FBF3F3184600F0B9FB47
:102580000346002B01D001230EE07B680F2B0AD8F5
:10259000002279684FF0FF3000F081FB064A7B682B
:1025A0001360002300E0012318460837BD4680BDB4
:1025B0002C000020080000200400002080B400AFA0
:1025C000054B1B781A46054B1B681344034A1360DE
:1025D00000BFBD4680BC70470800002024020020D8
:1025E00080B400AF024B1B681846BD4680BC7047E4
:1025F0002402002080B584B000AF7860FFF7F0FFC0
:10260000B8607B68FB60FB68B3F1FF3F05D0094B06
:102610001B781A46FB681344FB6000BFFFF7E0FF1E
:102620000246BB68D31AFA689A42F7D800BF10373F
:10263000BD4680BD0800002080B584B000AF786042
:102640000023FB737B68002B01D1012333E07B68FF
:102650001B6C002B09D17B6800225A647B68002226
:1026600083F83C2078680DF05BF87B681B6C03F006
:102670001003002B18D17B681B6C23F4885323F0C4
:10268000020343F002027B681A64786800F03AF9AA
:102690007B6800225A647B681B6C23F0030343F0C1
:1026A00001027B681A6401E00123FB737B6800224E
:1026B00083F83C20FB7B18461037BD4680BD0000E8
:1026C00080B485B000AF786039600023BB607B6860
:1026D00093F83C30012B01D1022305E17B680122F4
:1026E00083F83C203B681B68092B25D97B681B6855
:1026F000D9683B681B689BB21A4613465B001344BB
:102700001E3B072202FA03F3DA437B681B680A4088
:10271000DA607B681B68D9683B689A683B681B680D
:102720009BB2184603465B0003441E3B9A407B68FD
:102730001B680A43DA6022E07B681B6819693B6802
:102740001B689BB21A4613465B001344072202FA29
:1027500003F3DA437B681B680A401A617B681B68D5
:1027600019693B689A683B681B689BB21846034628
:102770005B0003449A407B681B680A431A613B680C
:102780005B68062B24D87B681B68596B3B685A68CA
:1027900013469B001344053B1F2202FA03F3DA435E
:1027A0007B681B680A405A637B681B68596B3B68EF
:1027B0001B689BB218463B685A6813469B0013443B
:1027C000053B00FA03F27B681B680A435A634CE03E
:1027D0003B685B680C2B24D87B681B68196B3B68D3
:1027E0005A6813469B001344233B1F2202FA03F34B
:1027F000DA437B681B680A401A637B681B68196BA5
:102800003B681B689BB218463B685A6813469B009E
:102810001344233B00FA03F27B681B680A431A63E4
:1028200023E07B681B68D96A3B685A6813469B00A3
:102830001344413B1F2202FA03F3DA437B681B680F
:102840000A40DA627B681B68D96A3B681B689BB2E6
:1028500018463B685A6813469B001344413B00FAF4
:1028600003F27B681B680A43DA62224BFB607B68D9
:102870001B68214A934209D13B681B68122B05D182
:10288000FB685B6843F48002FB685A607B681B68E6
:10289000194A934223D13B681B68102B03D03B6835
:1028A0001B68112B1BD1FB685B6843F40002FB68BB
:1028B0005A603B681B68102B11D1104B1B68104AE3
:1028C000A2FB03239A0C13469B0013445B00BB60DE
:1028D00002E0BB68013BBB60BB68002BF9D17B68A1
:1028E000002283F83C20002318461437BD4680BCE4
:1028F000704700BF00230140002001402C00002051
:1029000083DE1B4380B485B000AF7860784BFB60FA
:10291000FB685B6823F44032FB685A60FB685A68C6
:102920007B685B681A43FB685A607B681B685A685F
:102930007B681B6822F480725A607B681B68596848
:102940007B681B691A027B681B680A435A607B68B4
:102950001B685A687B681B6822F040725A607B686B
:102960001B6859687B689A687B681B680A435A60D1
:102970007B681B689A687B681B6822F400629A6017
:102980007B681B6899687B68DA687B681B680A4308
:102990009A607B689B6A574A934222D07B681B6887
:1029A0009A687B681B6822F070629A607B681B687B
:1029B00099687B689A6A7B681B680A439A607B689F
:1029C0001B689A687B681B6822F040529A607B689B
:1029D0001B6899687B68DA6A7B681B680A439A609F
:1029E0000FE07B681B689A687B681B6822F0706246
:1029F0009A607B681B689A687B681B6822F040526B
:102A00009A607B681B689A687B681B6822F00202E8
:102A10009A607B681B6899687B689B695A007B6831
:102A20001B680A439A607B681B6A002B1BD07B687B
:102A30001B685A687B681B6842F400625A607B68B6
:102A40001B685A687B681B6822F460425A607B6886
:102A50001B6859687B685B6A013B5A037B681B688B
:102A60000A435A6007E07B681B685A687B681B68EA
:102A700022F400625A607B681B68DA6A7B681B6814
:102A800022F47002DA627B681B68D96A7B68DB69B2
:102A9000013B1A057B681B680A43DA627B681B6886
:102AA0009A687B681B6822F400729A607B681B68D6
:102AB00099687B681B6B5A027B681B680A439A60A3
:102AC0007B681B689A687B681B6822F480629A6046
:102AD0007B681B6899687B685B699A027B681B68E6
:102AE0000A439A6000BF1437BD4680BC704700BFE0
:102AF000002301400100000F80B485B000AF786072
:102B00007B6803F00703FB600C4BDB68BB60BA68B3
:102B10004FF6FF031340BB60FB681A02BB68134308
:102B200043F0BF6343F40033BB60044ABB68D36027
:102B300000BF1437BD4680BC704700BF00ED00E009
:102B400080B400AF044BDB681B0A03F00703184690
:102B5000BD4680BC704700BF00ED00E080B483B08C
:102B600000AF0346FB71FB7903F01F02064997F99A
:102B700007305B09012000FA02F241F8232000BF70
:102B80000C37BD4680BC704700E100E080B483B0E4
:102B900000AF03463960FB7197F90730002B0BDA61
:102BA0003B68DAB20C49FB7903F00F03043B1201D6
:102BB000D2B20B441A7609E03B68DAB2074997F9BA
:102BC00007301201D2B20B4483F8002300BF0C3748
:102BD000BD4680BC704700BF00ED00E000E100E0B2
:102BE00080B489B000AFF860B9607A60FB6803F028
:102BF0000703FB61FB69C3F10703042B28BF042310
:102C0000BB61FB690433062B02D9FB69033B00E07F
:102C100000237B614FF0FF32BB6902FA03F3DA4312
:102C2000BB681A407B699A404FF0FF317B6901FA1B
:102C300003F3D9437B680B40134318462437BD4642
:102C400080BC704780B582B000AF78607B68013B84
:102C5000B3F1807F01D301230FE00A4A7B68013B77
:102C600053600F214FF0FF30FFF790FF054B00221C
:102C70009A60044B07221A60002318460837BD46A5
:102C800080BD00BF10E000E080B582B000AF78608A
:102C90007868FFF731FF00BF0837BD4680BD80B5BB
:102CA00086B000AF0346B9607A60FB7300237B6196
:102CB000FFF746FF78617A68B9687869FFF790FF97
:102CC000024697F90F3011461846FFF75FFF00BF25
:102CD0001837BD4680BD80B582B000AF0346FB719A
:102CE00097F907301846FFF739FF00BF0837BD4690
:102CF00080BD80B582B000AF78607868FFF7A2FF32
:102D0000034618460837BD4680BD000080B483B036
:102D100000AF78607B68042B06D1094B1B68084A1A
:102D200043F00403136005E0054B1B68044A23F0DD
:102D30000403136000BF0C37BD4680BC704700BF62
:102D400010E000E080B500AF00F002F800BF80BDE9
:102D500080B400AF00BFBD4680BC704780B582B074
:102D600000AF78607B68002B01D1012311E07B6804
:102D70005B79DBB2002B05D17B6800221A71786881
:102D800000F00BF87B6802225A717B6801225A71AD
:102D9000002318460837BD4680BD80B483B000AF1D
:102DA000786000BF0C37BD4680BC704780B483B0EC
:102DB00000AF78607B6893F83530DBB2022B04D02B
:102DC0007B6880225A6501230CE07B68052283F82A
:102DD00035207B681B681A687B681B6822F001023B
:102DE0001A60002318460C37BD4680BC70470000AF
:102DF00080B489B000AF7860396000237B61002324
:102E00003B610023BB610023FB6159E10122FB69A7
:102E100002FA03F37B613B681B687A6913403B61EC
:102E20003A697B699A4240F048813B685B68022BB3
:102E300003D03B685B68122B23D1FB69DA087B68FF
:102E4000083253F82230BB61FB6903F007039B0093
:102E50000F2202FA03F3DB43BA691340BB613B68FC
:102E60001A69FB6903F007039B0002FA03F3BA69CE
:102E70001343BB61FB69DA087B680832B96943F820
:102E800022107B681B68BB61FB695B00032202FAAE
:102E900003F3DB43BA691340BB613B685B6803F033
:102EA0000302FB695B0002FA03F3BA691343BB61D7
:102EB0007B68BA691A603B685B68012B0BD03B6882
:102EC0005B68022B07D03B685B68112B03D03B6823
:102ED0005B68122B30D17B689B68BB61FB695B0030
:102EE000032202FA03F3DB43BA691340BB613B6878
:102EF000DA68FB695B0002FA03F3BA691343BB614A
:102F00007B68BA699A607B685B68BB610122FB6978
:102F100002FA03F3DB43BA691340BB613B685B68A9
:102F20001B0903F00102FB6902FA03F3BA691343B8
:102F3000BB617B68BA695A607B68DB68BB61FB690F
:102F40005B00032202FA03F3DB43BA691340BB615F
:102F50003B689A68FB695B0002FA03F3BA691343A2
:102F6000BB617B68BA69DA603B685B6803F08053D9
:102F7000002B00F0A2800023FB60564B5B6C554A8F
:102F800043F480435364534B5B6C03F48043FB6016
:102F9000FB68514AFB699B08023352F82330BB613E
:102FA000FB6903F003039B000F2202FA03F3DB43E8
:102FB000BA691340BB617B68484A934219D07B6869
:102FC000474A934213D07B68464A93420DD07B68B0
:102FD000454A934207D07B68444A934201D1042377
:102FE00008E0072306E0032304E0022302E00123B4
:102FF00000E00023FA6902F0030292009340BA69EC
:103000001343BB613449FB699B080233BA6941F839
:103010002320374B1B68BB613B69DB43BA69134014
:10302000BB613B685B6803F48033002B03D0BA6953
:103030003B691343BB612E4ABB6913602C4B5B6831
:10304000BB613B69DB43BA691340BB613B685B68AA
:1030500003F40033002B03D0BA693B691343BB610F
:10306000234ABB695360224B9B68BB613B69DB43CE
:10307000BA691340BB613B685B6803F48013002BA3
:1030800003D0BA693B691343BB61194ABB699360BA
:10309000174BDB68BB613B69DB43BA691340BB611B
:1030A0003B685B6803F40013002B03D0BA693B69EB
:1030B0001343BB610E4ABB69D360FB690133FB61FB
:1030C000FB690F2B7FF6A2AE00BF2437BD4680BC44
:1030D000704700BF00380240003801400000024045
:1030E0000004024000080240000C024000100240B0
:1030F000003C014080B483B000AF78600B467B8019
:1031000013467B707B78002B03D07A887B689A61AA
:1031100003E07B881A047B689A6100BF0C37BD46C8
:1031200080BC704780B483B000AF78600B467B8072
:103130007B685A697B885A407B685A6100BF0C37AC
:10314000BD4680BC7047F0B58DB00AAF78607B6833
:10315000002B01D101233EE07B68032283F89122FA
:10316000786806F071FF7B681B68184603F071FDF4
:103170007B681B683B607E686D4606F110040FCCCF
:103180000FC50FCC0FC594E8030085E80300331D7D
:103190000ECB386803F0FCFC7B681B6801211846E5
:1031A00003F067FD7B681B683B607E686D4606F137
:1031B00010040FCC0FC50FCC0FC594E8030085E8B1
:1031C0000300331D0ECB386803F06CFE7B680122D0
:1031D00083F89122002318460C37BD46F0BD90B508
:1031E00089B004AF7860084611461A460346FB7062
:1031F0000B46BB7013467B700023FB737B6893F810
:103200009032012B01D102236CE07B68012283F80C
:103210009022FA78796813469B001344DB000B4434
:1032200038337A781A70FA78796813469B00134419
:10323000DB000B4440333A8D1A80FA7879681346E4
:103240009B001344DB000B443933FA781A70FA7888
:10325000796813469B001344DB000B443F3397F817
:1032600024201A70FA78BB7803F07F03D8B279680B
:1032700013469B001344DB000B443A3302461A709A
:1032800097F90230DBB2DB09DBB2FA7818467968CD
:1032900013469B001344DB000B443B3302461A7079
:1032A000FA78796813469B001344DB000B443C33E7
:1032B00097F820201A707B6818687C78BA78F978BB
:1032C0003B8D029397F82430019397F820300093B8
:1032D000234603F03FFF0346FB737B68002283F81D
:1032E0009022FB7B18461437BD4690BD80B584B054
:1032F00000AF78600B46FB700023FB737B6893F88C
:103300009032012B01D102230FE07B68012283F868
:1033100090227B681B68FA781146184604F052F92F
:103320007B68002283F89022FB7B18461037BD464D
:1033300080BD000080B582B000AF786008461146BD
:103340001A460346FB700B46BB7013467B70FA7837
:10335000796813469B001344DB000B443B33BA7877
:103360001A70FA78796813469B001344DB000B440B
:103370003F337A781A703B7C002B0AD1FA7879684F
:1033800013469B001344DB000B44423303221A70A4
:1033900009E0FA78796813469B001344DB000B447C
:1033A000423302221A707B78032B00F2048101A2BF
:1033B00052F823F0C53300089B3500085D3400083F
:1033C000113500083B7C012B40F0F280BB78002BCC
:1033D00040F0EE803B8B002B09D1FA7879681346D8
:1033E0009B001344DB000B44513301221A70FA781E
:1033F000796813469B001344DB000B4451331B7860
:10340000002B0AD1FA78796813469B001344DB003D
:103410000B44423300221A7009E0FA7879681346A7
:103420009B001344DB000B44423302221A70FA78EB
:10343000796813469B001344DB000B445C331B7814
:10344000022B00F0B580FA78796813469B0013448C
:10345000DB000B443D333A7F1A70A9E0BB78002BA8
:1034600035D1FA78796813469B001344DB000B448E
:1034700051331B78002B0AD1FA78796813469B00E8
:103480001344DB000B44423300221A7009E0FA783F
:10349000796813469B001344DB000B44423302223D
:1034A0001A70FA78796813469B001344DB000B44CA
:1034B0005C331B78022B7DD0FA78796813469B0029
:1034C0001344DB000B443D333A7F1A7072E0FA7804
:1034D000796813469B001344DB000B4450331B7880
:1034E000002B0AD1FA78796813469B001344DB005D
:1034F0000B44423300221A705CE0FA787968134674
:103500009B001344DB000B44423302221A7051E04B
:10351000BB78002B20D1FA78796813469B001344BE
:10352000DB000B4451331B78002B0AD1FA78796801
:1035300013469B001344DB000B44423300221A70F5
:1035400039E0FA78796813469B001344DB000B449A
:10355000423302221A702EE0FA78796813469B00F3
:103560001344DB000B4450331B78002B0AD1FA784C
:10357000796813469B001344DB000B44423300225E
:103580001A7018E0FA78796813469B001344DB0040
:103590000B44423302221A700DE0FA787968134620
:1035A0009B001344DB000B44423300221A7002E0FC
:1035B00000BF00E000BFFA78796813469B0013440F
:1035C000DB000B4444337A691A60FA78398B7868E7
:1035D00013469B001344DB00034448331960FA7818
:1035E000796813469B001344DB000B445C330022D4
:1035F0001A70FA78796813469B001344DB000B4479
:103600004C3300221A60FA78796813469B00134401
:10361000DB000B443933FA781A70FA78796813466C
:103620009B001344DB000B445D3300221A707B685F
:103630001868FA7813469B001344DB0038337A6825
:10364000D1187B681B69DBB21A4603F073FE034690
:1036500018460837BD4680BD80B586B000AF78609B
:103660007B681B683B6100237B610023FB607B68F8
:103670001B68184603F0D6FB0346012B40F0E88098
:103680007B681B68184603F0B9FB0346002B00F06B
:10369000DE807B681B68184603F0B0FB034603F42A
:1036A0000013B3F5001F04D17B681B684FF40012B0
:1036B0005A617B681B68184603F0A0FB034603F4BD
:1036C0008013B3F5801F04D17B681B684FF4801210
:1036D0005A617B681B68184603F090FB034603F0B1
:1036E0008063B3F1806F04D17B681B684FF0806208
:1036F0005A617B681B68184603F080FB034603F0A1
:103700000203022B03D17B681B6802225A617B688B
:103710001B68184603F072FB034603F00053B3F135
:10372000005F17D13B6903F588631B683A6902F5AE
:10373000886223F02E031360786806F0DFFC7B6854
:103740001B680121184603F057FC7B681B684FF08B
:1037500000525A617B681B68184603F04FFB034612
:1037600003F08073B3F1807F02D1786801F006F82E
:103770007B681B68184603F041FB034603F008030F
:10378000082B06D1786806F09DFC7B681B68082230
:103790005A617B681B68184603F030FB034603F050
:1037A0000073B3F1007F34D17B681B68184603F0C7
:1037B000FBFEF86000237B6121E001227B699A40D7
:1037C000FB681340002B17D07B695A013B691344F7
:1037D00003F5A0631B6803F40043002B06D07B694C
:1037E000DBB21946786800F0C8F805E07B69DBB207
:1037F0001946786800F0F8FB7B6901337B617B68D0
:103800009B687A699A42D8D37B681B684FF0007234
:103810005A617B681B68184603F0F0FA034603F010
:103820001003102B14D17B681B689A697B681B6896
:1038300022F010029A61786800F0EEFE7B681B6847
:103840009A697B681B6842F010029A6100E000BF31
:103850001837BD4680BD80B582B000AF78607B6808
:1038600093F89032012B01D1022313E07B680122EF
:1038700083F890227B681B68184603F0DAF97B68AE
:103880001B680121184603F011FC7B68002283F8B5
:103890009022002318460837BD4680BD80B582B00F
:1038A00000AF78607B6893F89032012B01D102233E
:1038B0000DE07B68012283F890227B681B68184624
:1038C00003F09AFF7B68002283F8902200231846B9
:1038D0000837BD4680BD80B582B000AF78607B6898
:1038E0001B68184603F0BFFB034618460837BD4661
:1038F00080BD80B483B000AF78600B46FB70FA786F
:10390000796813469B001344DB000B445C331B783F
:1039100018460C37BD4680BC704780B483B000AFFA
:1039200078600B46FB70FA78796813469B00134465
:10393000DB000B444C331B6818460C37BD4680BC7B
:10394000704780B582B000AF78607B681B6818460E
:1039500003F0F2FB034618460837BD4680BD80B52C
:1039600082B000AF78607B681B68184603F0D2FB1A
:10397000034618460837BD4680BD90B585B000AFF8
:1039800078600B46FB707B681B68FB600023BB60A4
:10399000FB785A01FB68134403F5A0639B6803F0AE
:1039A0000403002B19D0FB785A01FB68134403F57C
:1039B000A0631A4604239360FB785A01FB68134402
:1039C00003F5A063DB68FA785101FA680A4402F54E
:1039D000A06243F00203D36092E0FB785A01FB68D7
:1039E000134403F5A0639B6803F02003002B09D068
:1039F000FB785A01FB68134403F5A0631A462023A1
:103A000093607DE0FB785A01FB68134403F5A063E3
:103A10009B6803F00803002B33D0FB785A01FB6846
:103A2000134403F5A063DB68FA785101FA680A448D
:103A300002F5A06243F00203D360FA787968134676
:103A40009B001344DB000B445D3305221A70FB78A6
:103A50005A01FB68134403F5A0631A4610239360D0
:103A6000FB785A01FB68134403F5A0631A46082348
:103A700093607B681B68FA781146184603F0A2FD34
:103A80003EE0FB785A01FB68134403F5A0639B6892
:103A900003F48063002B33D0FB785A01FB68134496
:103AA00003F5A063DB68FA785101FA680A4402F56D
:103AB000A06243F00203D3607B681B68FA7811466A
:103AC000184603F07FFDFB785A01FB68134403F5A9
:103AD000A0631A4610239360FA78796813469B0016
:103AE0001344DB000B445D3308221A70FB785A0143
:103AF000FB68134403F5A0631A464FF48063936098
:103B0000FB785A01FB68134403F5A0639B6803F438
:103B10000073002B21D0FB785A01FB68134403F596
:103B2000A063DB68FA785101FA680A4402F5A062E2
:103B300043F00203D3607B681B68FA78114618468D
:103B400003F040FDFB785A01FB68134403F5A063C2
:103B50001A464FF40073936042E2FB785A01FB6807
:103B6000134403F5A0639B6803F00103002B00F0EE
:103B7000BE807B681B69002B1BD0FA7879681346DE
:103B80009B001344DB000B4448331968FB785A014F
:103B9000FB68134403F5A0631B69C3F31203FA78AF
:103BA000C91A786813469B001344DB0003444C3366
:103BB0001960FA78796813469B001344DB000B44C4
:103BC0005D3301221A70FA78796813469B0013441A
:103BD000DB000B44583300221A60FB785A01FB6863
:103BE000134403F5A0631A4601239360FA787968B9
:103BF00013469B001344DB000B443F331B78002B20
:103C00000AD0FA78796813469B001344DB000B4412
:103C10003F331B78022B20D1FB785A01FB681344F9
:103C200003F5A063DB68FA785101FA680A4402F5EB
:103C3000A06243F00203D3607B681B68FA781146E8
:103C4000184603F0BFFCFB785A01FB68134403F5E8
:103C5000A0631A461023936032E0FA78796813461D
:103C60009B001344DB000B443F331B78032B27D10D
:103C7000FB785A01FB68134403F5A0631B68FA78CC
:103C80005101FA680A4402F5A06243F00053136040
:103C9000FA78796813469B001344DB000B445C33CD
:103CA00001221A70FA78796813469B001344DB00EE
:103CB0000B445C331A78FB781946786806F02CFAC6
:103CC000FA78796813469B001344DB000B445033A9
:103CD0001B78FA7883F00103D8B2796813469B0009
:103CE0001344DB000B44503302461A7078E1FB7832
:103CF0005A01FB68134403F5A0639B6803F00203B9
:103D0000002B00F0B680FB785A01FB68134403F5E2
:103D1000A063DB68FA785101FA680A4402F5A062F0
:103D200023F00203D360FA78796813469B001344AA
:103D3000DB000B445D331B78012B0AD1FA787968DC
:103D400013469B001344DB000B445C3301221A70C2
:103D500077E0FA78796813469B001344DB000B4444
:103D60005D331B78052B0AD1FA78796813469B00DE
:103D70001344DB000B445C3305221A7061E0FA78CF
:103D8000796813469B001344DB000B445D331B78BA
:103D9000062B0AD0FA78796813469B001344DB009F
:103DA0000B445D331B78082B4BD1FA7879681346A6
:103DB0009B001344DB000B4458331968481C7C6893
:103DC00013469B001344DB00234458331860032937
:103DD00014D9FA78796813469B001344DB000B442E
:103DE000583300221A60FA78796813469B0013440E
:103DF000DB000B445C3304221A7009E0FA7879681E
:103E000013469B001344DB000B445C3302221A7000
:103E1000FB785A01FB68134403F5A0631B68BB6081
:103E2000BB6823F08043BB60BB6843F00043BB60CA
:103E3000FB785A01FB68134403F5A0631A46BB687C
:103E40001360FB785A01FB68134403F5A0631A461C
:103E500002239360FA78796813469B001344DB00D1
:103E60000B445C331A78FB781946786806F054F9ED
:103E7000B6E0FB785A01FB68134403F5A0639B6826
:103E800003F08003002B3CD0FB785A01FB681344FD
:103E900003F5A063DB68FA785101FA680A4402F579
:103EA000A06243F00203D360FA78796813469B005E
:103EB0001344DB000B4458331B68591C78681346C5
:103EC0009B001344DB00034458331960FA78796887
:103ED00013469B001344DB000B445D3306221A702B
:103EE0007B681B68FA781146184603F06BFBFB7879
:103EF0005A01FB68134403F5A0631A4680239360BC
:103F00006EE0FB785A01FB68134403F5A0639B68DD
:103F100003F01003002B63D0FA78796813469B00F6
:103F20001344DB000B443F331B78032B16D1FB7883
:103F30005A01FB68134403F5A063DB68FA7851016A
:103F4000FA680A4402F5A06243F00203D3607B687A
:103F50001B68FA781146184603F034FBFA78796842
:103F600013469B001344DB000B445D3303221A709D
:103F7000FB785A01FB68134403F5A0631A4610232B
:103F80009360FA78796813469B001344DB000B4476
:103F90003F331B78002B0AD0FA78796813469B00D0
:103FA0001344DB000B443F331B78022B18D1FB7802
:103FB0005A01FB68134403F5A0631B68BB60BB6830
:103FC00023F08043BB60BB6843F00043BB60FB78D9
:103FD0005A01FB68134403F5A0631A46BB681360DB
:103FE00000BF1437BD4690BD90B585B000AF786076
:103FF0000B46FB707B681B68FB60FB785A01FB6813
:10400000134403F5A0639B6803F00403002B19D04D
:10401000FB785A01FB68134403F5A0631A46042396
:104020009360FB785A01FB68134403F5A063DB68D7
:10403000FA785101FA680A4402F5A06243F00203DB
:10404000D360E4E2FB785A01FB68134403F5A063F4
:104050009B6803F02003002B40D0FB785A01FB68DB
:10406000134403F5A0631A4620239360FA78796815
:1040700013469B001344DB000B443D331B78012B9C
:1040800040F0C582FA78796813469B001344DB0040
:104090000B445D3304221A70FB785A01FB68134409
:1040A00003F5A063DB68FA785101FA680A4402F567
:1040B000A06243F00203D3607B681B68FA78114664
:1040C000184603F07FFAFA78796813469B00134488
:1040D000DB000B445C3302221A7098E2FB785A0131
:1040E000FB68134403F5A0639B6803F04003002BB7
:1040F00034D0FA78796813469B001344DB000B44F4
:104100005D3304221A70FA78796813469B001344D1
:10411000DB000B44583300221A60FB785A01FB681D
:10412000134403F5A063DB68FA785101FA680A4486
:1041300002F5A06243F00203D3607B681B68FA7843
:104140001146184603F03EFAFB785A01FB68134407
:1041500003F5A0631A464023936058E2FB785A01A6
:10416000FB68134403F5A0639B6803F40073002B02
:1041700021D0FB785A01FB68134403F5A063DB6888
:10418000FA785101FA680A4402F5A06243F002038A
:10419000D3607B681B68FA781146184603F012FA60
:1041A000FB785A01FB68134403F5A0631A464FF4E9
:1041B000007393602BE2FB785A01FB68134403F50C
:1041C000A0639B6803F00103002B34D0FA78796870
:1041D00013469B001344DB000B44583300221A6043
:1041E000FB785A01FB68134403F5A063DB68FA7897
:1041F0005101FA680A4402F5A06243F00203D36059
:104200007B681B68FA781146184603F0DBF9FB78E7
:104210005A01FB68134403F5A0631A460123936017
:10422000FA78796813469B001344DB000B445D3336
:1042300001221A70EBE1FB785A01FB68134403F585
:10424000A0639B6803F00803002B2AD0FB785A0177
:10425000FB68134403F5A0631A4608239360FB78B8
:104260005A01FB68134403F5A063DB68FA78510137
:10427000FA680A4402F5A06243F00203D3607B6847
:104280001B68FA781146184603F09CF9FA787968A9
:1042900013469B001344DB000B445D3305221A7068
:1042A000B5E1FB785A01FB68134403F5A0639B68F2
:1042B00003F01003002B34D0FA78796813469B0082
:1042C0001344DB000B44583300221A60FB785A0178
:1042D000FB68134403F5A063DB68FA785101FA68C0
:1042E0000A4402F5A06243F00203D3607B681B68B6
:1042F000FA781146184603F065F9FA78796813469A
:104300009B001344DB000B445D3303221A70FB78DF
:104310005A01FB68134403F5A0631A461023936007
:1043200075E1FB785A01FB68134403F5A0639B68B1
:1043300003F08003002B2AD0FB785A01FB6813445A
:1043400003F5A063DB68FA785101FA680A4402F5C4
:10435000A06243F00203D3607B681B68FA781146C1
:10436000184603F02FF9FA78796813469B00134436
:10437000DB000B445D3306221A70FB785A01FB68A0
:10438000134403F5A0631A46802393603FE1FB7852
:104390005A01FB68134403F5A0639B6803F4806330
:1043A000002B34D0FB785A01FB68134403F5A0635B
:1043B000DB68FA785101FA680A4402F5A06243F01A
:1043C0000203D3607B681B68FA781146184603F035
:1043D000F9F8FB785A01FB68134403F5A0631A4609
:1043E00010239360FB785A01FB68134403F5A06324
:1043F0001A464FF480639360FA78796813469B00FD
:104400001344DB000B445D3308221A70FFE0FB7895
:104410005A01FB68134403F5A0639B6803F0020391
:10442000002B00F0F480FB785A01FB68134403F57D
:10443000A063DB68FA785101FA680A4402F5A062C9
:1044400023F00203D360FA78796813469B00134483
:10445000DB000B445D331B78012B2CD1FA78796893
:1044600013469B001344DB000B445C3301221A709B
:10447000FA78796813469B001344DB000B443F3302
:104480001B78022B40F0AC80FA78796813469B00C9
:104490001344DB000B4451331B78FA7883F001039B
:1044A000D8B2796813469B001344DB000B445133A8
:1044B00002461A7094E0FA78796813469B00134418
:1044C000DB000B445D331B78032B0AD1FA78796843
:1044D00013469B001344DB000B445C3302221A702A
:1044E0007EE0FA78796813469B001344DB000B44A6
:1044F0005D331B78042B14D1FA78796813469B003E
:104500001344DB000B445C3302221A70FA7879689A
:1045100013469B001344DB000B443D3300221A700A
:104520005EE0FA78796813469B001344DB000B4485
:104530005D331B78052B0AD1FA78796813469B0006
:104540001344DB000B445C3305221A7048E0FA7810
:10455000796813469B001344DB000B445D331B78E2
:10456000062B0AD0FA78796813469B001344DB00C7
:104570000B445D331B78082B32D1FA7879681346E7
:104580009B001344DB000B4458331968481C7C68BB
:1045900013469B001344DB0023445833186003295F
:1045A00014D9FA78796813469B001344DB000B4456
:1045B000583300221A60FA78796813469B00134436
:1045C000DB000B445C3304221A7009E0FA78796846
:1045D00013469B001344DB000B445C3302221A7029
:1045E000FB785A01FB68134403F5A0631A460223C3
:1045F0009360FA78796813469B001344DB000B4400
:104600005C331A78FB781946786805F085FD00BFA1
:104610001437BD4690BD000080B588B000AF78600B
:104620007B681B68FB610023FB7600237B61002312
:104630003B617B681B681B6A7B617B69DBB203F0B3
:104640000F03FB767B695B0C03F00F03FB607B6958
:104650001B09C3F30A03BB60FB68022B03D0052BC5
:1046600000F0828083E0BB68002B7FD0FA7E7968FF
:1046700013469B001344DB000B4444331B68002BA0
:1046800074D07B681868FA7E796813469B001344DF
:10469000DB000B4444331B68BA6892B2194602F03F
:1046A00087FBFA7E796813469B001344DB000B44BA
:1046B00044331968FA7EBB681944786813469B0036
:1046C0001344DB00034444331960FA7E79681346CF
:1046D0009B001344DB000B444C331968FA7EBB6823
:1046E0001944786813469B001344DB0003444C33A1
:1046F0001960FB7E5A01FB69134403F5A0631A6934
:104700001D4B1340002B31D0FB7E5A01FB69134433
:1047100003F5A0631B683B613B6923F080433B6169
:104720003B6943F000433B61FB7E5A01FB69134444
:1047300003F5A0631A463B691360FA7E7968134655
:104740009B001344DB000B4450331B78FA7E83F04C
:104750000103D8B2796813469B001344DB000B4475
:10476000503302461A7001E000BF00E000BF00BFF6
:104770002037BD4680BD00BF0000F81F80B586B061
:1047800000AF78607B681B687B617B6903F5886399
:104790001B683B617B6903F588631B68FB60FB68F2
:1047A00023F02E03FB603B6903F00203022B13D1BD
:1047B0003B6903F00103012B0AD17B681B689A69EE
:1047C0007B681B6822F000529A61786805F088FCCB
:1047D000FB6843F00203FB603B6903F00803082B0E
:1047E00041D1FB6843F00803FB603B6903F004031D
:1047F000042B26D17B689B69022B13D13B6903F400
:10480000C023B3F5802F06D17B681B6802211846B0
:1048100002F0F2FB11E07B681B680121184602F0F0
:10482000EBFB0AE07B68DB68032B06D17B6903F5B1
:1048300080631A464EF660235360786805F050FC9A
:1048400011E07B6903F588631B687A6902F5886269
:1048500023F02E0313607B681B689A697B681B68D2
:1048600042F000529A613B6903F02003202B03D1F0
:10487000FB6843F02003FB607B6903F588631A46FD
:10488000FB68136000BF1837BD4680BD80B586B099
:1048900000AF78607B68002B01D101232DE27B689B
:1048A0001B6803F00103002B75D0A34B9B6803F03A
:1048B0000C03042B0CD0A04B9B6803F00C03082BBB
:1048C00012D19D4B5B6803F48003B3F5800F0BD1CD
:1048D000994B1B6803F40033002B5BD07B685B684B
:1048E000002B57D1012308E27B685B68B3F5803F5A
:1048F00006D1914B1B68904A43F4803313601DE04E
:104900007B685B68B3F5A02F0CD18B4B1B688A4A80
:1049100043F480231360884B1B68874A43F4803339
:1049200013600BE0844B1B68834A23F480331360CD
:10493000814B1B68804A23F4802313607B685B688B
:10494000002B13D0FDF74CFE386108E0FDF748FE60
:1049500002463B69D31A642B01D90323CDE1764B80
:104960001B6803F40033002BF0D014E0FDF738FE91
:10497000386108E0FDF734FE02463B69D31A642B28
:1049800001D90323B9E16C4B1B6803F40033002BFE
:10499000F0D100E000BF7B681B6803F00203002B2E
:1049A00063D0654B9B6803F00C03002B0BD0624B6C
:1049B0009B6803F00C03082B1CD15F4B5B6803F46E
:1049C0008003002B16D15C4B1B6803F00203002B05
:1049D00005D07B68DB68012B01D001238DE1564BAC
:1049E0001B6823F0F8027B681B69DB005249134304
:1049F0000B603AE07B68DB68002B20D04F4B012234
:104A00001A60FDF7EDFD386108E0FDF7E9FD0246AB
:104A10003B69D31A022B01D903236EE1464B1B6875
:104A200003F00203002BF0D0434B1B6823F0F80285
:104A30007B681B69DB00404913430B6015E03F4B6B
:104A400000221A60FDF7CCFD386108E0FDF7C8FDD3
:104A500002463B69D31A022B01D903234DE1364BA1
:104A60001B6803F00203002BF0D17B681B6803F086
:104A70000803002B30D07B685B69002B16D0304BCD
:104A800001221A60FDF7ACFD386108E0FDF7A8FDD2
:104A900002463B69D31A022B01D903232DE1264B91
:104AA0005B6F03F00203002BF0D015E0244B0022D3
:104AB0001A60FDF795FD386108E0FDF791FD0246AB
:104AC0003B69D31A022B01D9032316E11A4B5B6F02
:104AD00003F00203002BF0D17B681B6803F0040392
:104AE000002B00F0A0800023FB75134B1B6C03F020
:104AF0008053002B0FD10023FB600F4B1B6C0E4A21
:104B000043F0805313640C4B1B6C03F08053FB6029
:104B1000FB680123FB750B4B1B6803F48073002BB0
:104B200021D1084B1B68074A43F480731360FDF7DB
:104B300057FD386111E000BF0038024000004742D5
:104B4000800E474200700040FDF74AFD02463B6977
:104B5000D31A022B01D90323CFE06A4B1B6803F45D
:104B60008073002BF0D07B689B68012B06D1664BCD
:104B70001B6F654A43F0010313671CE07B689B6869
:104B8000052B0CD1604B1B6F5F4A43F00403136786
:104B90005D4B1B6F5C4A43F0010313670BE05A4BFC
:104BA0001B6F594A23F001031367574B1B6F564A7B
:104BB00023F0040313677B689B68002B15D0FDF777
:104BC0000FFD38610AE0FDF70BFD02463B69D31A81
:104BD00041F28832934201D903238EE04A4B1B6F86
:104BE00003F00203002BEED014E0FDF7F9FC38616E
:104BF0000AE0FDF7F5FC02463B69D31A41F2883220
:104C0000934201D9032378E03F4B1B6F03F002036B
:104C1000002BEED1FB7D012B05D13B4B1B6C3A4A9F
:104C200023F0805313647B689B69002B64D0364B60
:104C30009B6803F00C03082B5CD07B689B69022BFC
:104C400041D1324B00221A60FDF7CAFC386108E0FE
:104C5000FDF7C6FC02463B69D31A022B01D9032398
:104C60004BE0294B1B6803F00073002BF0D17B68ED
:104C7000DA697B681B6A1A437B685B6A9B011A438B
:104C80007B689B6A5B08013B1B041A437B68DB6AF9
:104C90001B061D4913434B601C4B01221A60FDF794
:104CA0009FFC386108E0FDF79BFC02463B69D31A84
:104CB000022B01D9032320E0134B1B6803F0007380
:104CC000002BF0D018E0114B00221A60FDF788FC91
:104CD000386108E0FDF784FC02463B69D31A022BD9
:104CE00001D9032309E0084B1B6803F00073002B74
:104CF000F0D101E0012300E0002318461837BD463B
:104D000080BD00BF00700040003802406000474294
:104D100080B584B000AF786039607B68002B01D12A
:104D20000123CAE0674B1B6803F00F033A689A42FD
:104D30000CD9644B3A68D2B21A70624B1B6803F00C
:104D40000F033A689A4201D00123B6E07B681B68E2
:104D500003F00203002B20D07B681B6803F00403E0
:104D6000002B05D0584B9B68574A43F4E05393609F
:104D70007B681B6803F00803002B05D0524B9B682F
:104D8000514A43F4604393604F4B9B6823F0F00219
:104D90007B689B684C4913438B607B681B6803F0FE
:104DA0000103002B44D07B685B68012B07D1464B85
:104DB0001B6803F40033002B19D101237DE07B68CD
:104DC0005B68022B03D07B685B68032B07D13E4BEB
:104DD0001B6803F00073002B09D101236DE03A4BEF
:104DE0001B6803F00203002B01D1012365E0364B61
:104DF0009B6823F003027B685B68334913438B6035
:104E0000FDF7EEFBF8600AE0FDF7EAFB0246FB68FF
:104E1000D31A41F28832934201D903234DE02A4B41
:104E20009B6803F00C027B685B689B009A42EBD1A5
:104E3000244B1B6803F00F033A689A420CD2214BB3
:104E40003A68D2B21A701F4B1B6803F00F033A681E
:104E50009A4201D0012330E07B681B6803F0040311
:104E6000002B08D0184B9B6823F4E0527B68DB686A
:104E7000154913438B607B681B6803F00803002B04
:104E800009D0114B9B6823F460427B681B69DB00EF
:104E90000D4913438B6000F01DF801460A4B9B68D7
:104EA0001B0903F00F03094AD35C21FA03F3084AF4
:104EB00013600020FDF752FB002318461037BD4653
:104EC00080BD00BF003C0240003802404C3B01085E
:104ED0002C000020F0B585B000AF00237B600023DC
:104EE000FB6000233B600023BB60634B9B6803F0C7
:104EF0000C03042B07D0082B08D0002B40F0B48003
:104F00005E4BBB60B3E05E4BBB60B0E05A4B5B688E
:104F100003F03F037B60584B5B6803F48003002B76
:104F20004AD0554B5B689B094FF0000440F2FF11DB
:104F30004FF0000203EA010504EA02062946324660
:104F40004FF000034FF00004540144EAD1644B01D8
:104F500019462246491B62EB06024FF000034FF050
:104F60000004940144EA91648B015B1A64EB02042F
:104F70004FF000014FF00002E20042EA5372D90004
:104F80000B4614465B1944EB06044FF000014FF04A
:104F90000002620242EAD35259020B4614461846F6
:104FA00021467B684FF000041A462346FBF7DAFFE0
:104FB00003460C46FB6049E02F4B5B689B094FF0B2
:104FC000000440F2FF114FF0000203EA010504EA79
:104FD0000206294632464FF000034FF00004540108
:104FE00044EAD1644B0119462246491B62EB060292
:104FF0004FF000034FF00004940144EA91648B01E8
:105000005B1A64EB02044FF000014FF00002E20073
:1050100042EA5372D9000B4614465B1944EB06046E
:105020004FF000014FF00002A20242EA93529902AF
:105030000B461446184621467B684FF000041A467A
:105040002346FBF78FFF03460C46FB600A4B5B6869
:105050001B0C03F0030301335B003B60FA683B6801
:10506000B2FBF3F3BB6002E0044BBB6000BFBB6864
:1050700018461437BD46F0BD003802400024F40045
:1050800000127A0080B400AF024B1B681846BD4680
:1050900080BC70472C00002080B500AFFFF7F2FF06
:1050A0000146054B9B689B0A03F00703034AD35C48
:1050B00021FA03F3184680BD003802405C3B01082A
:1050C00080B500AFFFF7DEFF0146054B9B685B0B29
:1050D00003F00703034AD35C21FA03F3184680BDAB
:1050E000003802405C3B010880B582B000AF7860B8
:1050F0007B68002B01D1012356E07B6800229A6275
:105100007B6893F85130DBB2002B06D17B6800221C
:1051100083F8502078680AF03FFB7B68022283F80E
:1051200051207B681B681A687B681B6822F040026C
:105130001A607B685A687B689B681A437B68DB68E7
:105140001A437B681B691A437B685B691A437B6857
:105150009B6903F400731A437B68DB691A437B681D
:105160001B6A42EA03017B689A6A7B681B680A43F0
:105170001A607B689B691B0C03F004017B685A6A08
:105180007B681B680A435A607B681B68DA697B6826
:105190001B6822F40062DA617B6800225A657B6832
:1051A000012283F85120002318460837BD4680BDF0
:1051B00080B582B000AF78607B68002B01D10123FD
:1051C0001DE07B6893F83930DBB2002B06D17B6899
:1051D000002283F8382078680AF040FB7B680222BE
:1051E00083F839207B681A687B68043319461046B7
:1051F00000F052FB7B68012283F839200023184617
:105200000837BD4680BD80B483B000AF78607B684E
:10521000022283F839207B681B681A687B681B6848
:1052200042F001021A607B68012283F839200023D2
:1052300018460C37BD4680BC704780B483B000AFC1
:1052400078607B681B68DA687B681B6842F0010243
:10525000DA607B681B681A687B681B6842F0010291
:105260001A60002318460C37BD4680BC704780B5D5
:1052700082B000AF78607B68002B01D101231DE074
:105280007B6893F83930DBB2002B06D17B680022B3
:1052900083F8382078680AF0B1FA7B68022283F834
:1052A00039207B681A687B6804331946104600F081
:1052B000F3FA7B68012283F8392000231846083767
:1052C000BD4680BD80B582B000AF786039607B6834
:1052D0001B6801223968184600F03CFC7B681B689B
:1052E0000B4A934207D17B681B685A6C7B681B682A
:1052F00042F400425A647B681B681A687B681B682A
:1053000042F001021A60002318460837BD4680BDEE
:105310000000014080B582B000AF78607B68002B50
:1053200001D101231DE07B6893F83930DBB2002BFB
:1053300006D17B68002283F83820786800F015F8E1
:105340007B68022283F839207B681A687B68043303
:105350001946104600F0A0FA7B68012283F8392034
:10536000002318460837BD4680BD80B483B000AF27
:10537000786000BF0C37BD4680BC704780B582B0F6
:1053800000AF78607B681B681B6903F00203022B87
:1053900022D17B681B68DB6803F00203022B1BD160
:1053A0007B681B686FF002021A617B6801221A7623
:1053B0007B681B689B6903F00303002B03D07868AC
:1053C0000AF038F905E0786800F04BFA786800F0E8
:1053D00051FA7B6800221A767B681B681B6903F010
:1053E0000403042B22D17B681B68DB6803F00403F1
:1053F000042B1BD17B681B686FF004021A617B6869
:1054000002221A767B681B689B6903F44073002BA9
:1054100003D078680AF00EF905E0786800F021FA08
:10542000786800F027FA7B6800221A767B681B6890
:105430001B6903F00803082B22D17B681B68DB681B
:1054400003F00803082B1BD17B681B686FF0080270
:105450001A617B6804221A767B681B68DB6903F09B
:105460000303002B03D078680AF0E4F805E07868BD
:1054700000F0F7F9786800F0FDF97B6800221A76F1
:105480007B681B681B6903F01003102B22D17B681B
:105490001B68DB6803F01003102B1BD17B681B68B3
:1054A0006FF010021A617B6808221A767B681B680D
:1054B000DB6903F44073002B03D078680AF0BAF874
:1054C00005E0786800F0CDF9786800F0D3F97B68E2
:1054D00000221A767B681B681B6903F00103012B0D
:1054E0000ED17B681B68DB6803F00103012B07D139
:1054F0007B681B686FF001021A61786800F0A8F9F8
:105500007B681B681B6903F08003802B0ED17B68CE
:105510001B68DB6803F08003802B07D17B681B6866
:105520006FF080021A61786800F06AFD7B681B6882
:105530001B6903F04003402B0ED17B681B68DB68BE
:1055400003F04003402B07D17B681B686FF04002DB
:105550001A61786800F097F97B681B681B6903F093
:105560002003202B0ED17B681B68DB6803F020032F
:10557000202B07D17B681B686FF020021A617868C6
:1055800000F035FD00BF0837BD4680BD80B584B052
:1055900000AFF860B9607A60FB6893F83830012B8F
:1055A00001D102238AE0FB68012283F83820FB68DE
:1055B000022283F839207B68002B1BD1FB68186816
:1055C000BB681968BB685A68BB68DB6800F0E8F91B
:1055D000FB681B689A69FB681B6822F00C029A61E1
:1055E000FB681B689969BB689A68FB681B680A437B
:1055F0009A615AE07B68042B1CD1FB681868BB6871
:105600001968BB685A68BB68DB6800F0EDFBFB6893
:105610001B689A69FB681B6822F440629A61FB6808
:105620001B689969BB689B681A02FB681B680A4380
:105630009A613AE07B68082B1BD1FB681868BB684D
:105640001968BB685A68BB68DB6800F00DFCFB6832
:105650001B68DA69FB681B6822F00C02DA61FB68E0
:105660001B68D969BB689A68FB681B680A43DA61E2
:105670001BE0FB681868BB681968BB685A68BB68A0
:10568000DB6800F030FCFB681B68DA69FB681B68AC
:1056900022F44062DA61FB681B68D969BB689B68C9
:1056A0001A02FB681B680A43DA61FB68012283F86F
:1056B0003920FB68002283F8382000231846103771
:1056C000BD4680BD80B584B000AFF860B9607A6037
:1056D000FB6893F83830012B01D10223B4E0FB685A
:1056E000012283F83820FB68022283F839207B6886
:1056F0000C2B00F29F8001A252F823F031570008D2
:10570000355800083558000835580008715700080A
:10571000355800083558000835580008B3570008B8
:10572000355800083558000835580008F357000868
:10573000FB681B68B968184600F02EFAFB681B6806
:105740009A69FB681B6842F008029A61FB681B6853
:105750009A69FB681B6822F004029A61FB681B6867
:105760009969BB681A69FB681B680A439A6162E021
:10577000FB681B68B968184600F080F9FB681B6875
:105780009A69FB681B6842F400629A61FB681B68B7
:105790009A69FB681B6822F480629A61FB681B6847
:1057A0009969BB681B691A02FB681B680A439A6106
:1057B00041E0FB681B68B968184600F055FAFB68C1
:1057C0001B68DA69FB681B6842F00802DA61FB6853
:1057D0001B68DA69FB681B6822F00402DA61FB6867
:1057E0001B68D969BB681A69FB681B680A43DA61E0
:1057F00021E0FB681B68B968184600F0A1FAFB6855
:105800001B68DA69FB681B6842F40062DA61FB68B6
:105810001B68DA69FB681B6822F48062DA61FB6846
:105820001B68D969BB681B691A02FB681B680A43BD
:10583000DA6100E000BFFB68012283F83920FB68D1
:10584000002283F83820002318461037BD4680BD5B
:1058500080B483B000AF786000BF0C37BD4680BC19
:10586000704780B483B000AF786000BF0C37BD468E
:1058700080BC704780B483B000AF786000BF0C3745
:10588000BD4680BC704780B483B000AF786000BF75
:105890000C37BD4680BC704780B485B000AF7860DF
:1058A00039600023FB607B681B68FB607B68354ABE
:1058B00093420FD07B68B3F1804F0BD07B68324AA4
:1058C000934207D07B68314A934203D07B68304AC9
:1058D000934201D1012300E00023002B08D0FB6894
:1058E00023F07003FB603B685B68FA681343FB605E
:1058F0007B68244A93421BD07B68B3F1804F17D05A
:105900007B68214A934213D07B68204A93420FD090
:105910007B681F4A93420BD07B681E4A934207D094
:105920007B681D4A934203D07B681C4A934201D195
:10593000012300E00023002B08D0FB6823F4407310
:10594000FB603B68DB68FA681343FB607B68FA68BE
:105950001A603B689A687B68DA623B681A687B6801
:105960009A627B68074A934203D13B681A697B6855
:105970001A637B6801225A6100BF1437BD4680BCA0
:10598000704700BF000001400004004000080040D4
:10599000000C00400040014000440140004801402C
:1059A00080B487B000AFF860B9607A603B600023D4
:1059B0007B6100233B61FB681B6A23F00102FB68EB
:1059C0001A62FB689B697B61FB681B6A3B61FB6831
:1059D000254A934213D0FB68B3F1804F0FD0FB6888
:1059E000224A93420BD0FB68214A934207D0FB68BE
:1059F000204A934203D0FB681F4A934201D10123FE
:105A000000E00023002B08D07B6923F003037B61B7
:105A10007A697B6813437B6107E07B6923F00303AA
:105A20007B617B6943F001037B617B6923F0F003B9
:105A30007B613B681B01DBB27A6913437B613B6985
:105A400023F00A033B61BB6803F00A033A6913437E
:105A50003B61FB687A699A61FB683A691A6200BF28
:105A60001C37BD4680BC7047000001400004004068
:105A700000080040000C00400040014080B487B0A6
:105A800000AF786039600023FB6000237B61002356
:105A90003B617B681B6A23F010027B681A627B689B
:105AA0001B6A7B617B685B683B617B689B69FB6011
:105AB000FB6823F4E043FB60FB6823F44073FB6066
:105AC0003B681B681B02FA681343FB607B6923F089
:105AD00020037B613B689B681B017A6913437B61F0
